{
  "contractName": "ZombieAttack",
  "abi": [
    {
      "constant": false,
      "inputs": [
        {
          "name": "_zombieId",
          "type": "uint256"
        }
      ],
      "name": "levelUp",
      "outputs": [],
      "payable": true,
      "stateMutability": "payable",
      "type": "function"
    },
    {
      "constant": false,
      "inputs": [
        {
          "name": "_zombieId",
          "type": "uint256"
        },
        {
          "name": "_kittyId",
          "type": "uint256"
        }
      ],
      "name": "feedOnKitty",
      "outputs": [],
      "payable": false,
      "stateMutability": "nonpayable",
      "type": "function"
    },
    {
      "constant": true,
      "inputs": [
        {
          "name": "",
          "type": "uint256"
        }
      ],
      "name": "zombies",
      "outputs": [
        {
          "name": "name",
          "type": "string"
        },
        {
          "name": "dna",
          "type": "uint256"
        },
        {
          "name": "level",
          "type": "uint32"
        },
        {
          "name": "readyTime",
          "type": "uint32"
        },
        {
          "name": "winCount",
          "type": "uint16"
        },
        {
          "name": "lossCount",
          "type": "uint16"
        }
      ],
      "payable": false,
      "stateMutability": "view",
      "type": "function"
    },
    {
      "constant": false,
      "inputs": [],
      "name": "withdraw",
      "outputs": [],
      "payable": false,
      "stateMutability": "nonpayable",
      "type": "function"
    },
    {
      "constant": true,
      "inputs": [
        {
          "name": "_owner",
          "type": "address"
        }
      ],
      "name": "getZombiesByOwner",
      "outputs": [
        {
          "name": "",
          "type": "uint256[]"
        }
      ],
      "payable": false,
      "stateMutability": "view",
      "type": "function"
    },
    {
      "constant": true,
      "inputs": [
        {
          "name": "",
          "type": "uint256"
        }
      ],
      "name": "zombieToOwner",
      "outputs": [
        {
          "name": "",
          "type": "address"
        }
      ],
      "payable": false,
      "stateMutability": "view",
      "type": "function"
    },
    {
      "constant": false,
      "inputs": [
        {
          "name": "_address",
          "type": "address"
        }
      ],
      "name": "setKittyContractAddress",
      "outputs": [],
      "payable": false,
      "stateMutability": "nonpayable",
      "type": "function"
    },
    {
      "constant": false,
      "inputs": [
        {
          "name": "_zombieId",
          "type": "uint256"
        },
        {
          "name": "_newDna",
          "type": "uint256"
        }
      ],
      "name": "changeDna",
      "outputs": [],
      "payable": false,
      "stateMutability": "nonpayable",
      "type": "function"
    },
    {
      "constant": false,
      "inputs": [
        {
          "name": "_name",
          "type": "string"
        }
      ],
      "name": "createRandomZombie",
      "outputs": [],
      "payable": false,
      "stateMutability": "nonpayable",
      "type": "function"
    },
    {
      "constant": true,
      "inputs": [],
      "name": "owner",
      "outputs": [
        {
          "name": "",
          "type": "address"
        }
      ],
      "payable": false,
      "stateMutability": "view",
      "type": "function"
    },
    {
      "constant": false,
      "inputs": [
        {
          "name": "_zombieId",
          "type": "uint256"
        },
        {
          "name": "_newName",
          "type": "string"
        }
      ],
      "name": "changeName",
      "outputs": [],
      "payable": false,
      "stateMutability": "nonpayable",
      "type": "function"
    },
    {
      "constant": false,
      "inputs": [
        {
          "name": "_fee",
          "type": "uint256"
        }
      ],
      "name": "setLevelUpFee",
      "outputs": [],
      "payable": false,
      "stateMutability": "nonpayable",
      "type": "function"
    },
    {
      "constant": false,
      "inputs": [
        {
          "name": "newOwner",
          "type": "address"
        }
      ],
      "name": "transferOwnership",
      "outputs": [],
      "payable": false,
      "stateMutability": "nonpayable",
      "type": "function"
    },
    {
      "anonymous": false,
      "inputs": [
        {
          "indexed": false,
          "name": "zombieId",
          "type": "uint256"
        },
        {
          "indexed": false,
          "name": "name",
          "type": "string"
        },
        {
          "indexed": false,
          "name": "dna",
          "type": "uint256"
        }
      ],
      "name": "NewZombie",
      "type": "event"
    },
    {
      "anonymous": false,
      "inputs": [
        {
          "indexed": true,
          "name": "previousOwner",
          "type": "address"
        },
        {
          "indexed": true,
          "name": "newOwner",
          "type": "address"
        }
      ],
      "name": "OwnershipTransferred",
      "type": "event"
    },
    {
      "constant": false,
      "inputs": [
        {
          "name": "_zombieId",
          "type": "uint256"
        },
        {
          "name": "_targetId",
          "type": "uint256"
        }
      ],
      "name": "attack",
      "outputs": [],
      "payable": false,
      "stateMutability": "nonpayable",
      "type": "function"
    }
  ],
  "bytecode": "0x60806040526010600155600154600a0a6002556201518060035566038d7ea4c6800060085560006009556046600a55336000806101000a81548173ffffffffffffffffffffffffffffffffffffffff021916908373ffffffffffffffffffffffffffffffffffffffff160217905550611a1d8061007d6000396000f3006080604052600436106100d0576000357c0100000000000000000000000000000000000000000000000000000000900463ffffffff1680630ce90ec2146100d557806317a7f4cc146100f55780632052465e1461012c5780633ccfd60b1461021d5780634412e10414610234578063528b7b8f146102cc5780635f4623f1146103395780635faf28801461037c5780637bff0a01146103b35780638da5cb5b1461041c578063c39cbef114610473578063ccf670f8146104b8578063e1fa7638146104e5578063f2fde38b1461051c575b600080fd5b6100f36004803603810190808035906020019092919050505061055f565b005b34801561010157600080fd5b5061012a60048036038101908080359060200190929190803590602001909291905050506105fa565b005b34801561013857600080fd5b50610157600480360381019080803590602001909291905050506107a3565b60405180806020018781526020018663ffffffff1663ffffffff1681526020018563ffffffff1663ffffffff1681526020018461ffff1661ffff1681526020018361ffff1661ffff168152602001828103825288818151815260200191508051906020019080838360005b838110156101dd5780820151818401526020810190506101c2565b50505050905090810190601f16801561020a5780820380516001836020036101000a031916815260200191505b5097505050505050505060405180910390f35b34801561022957600080fd5b506102326108c2565b005b34801561024057600080fd5b50610275600480360381019080803573ffffffffffffffffffffffffffffffffffffffff16906020019092919050505061099e565b6040518080602001828103825283818151815260200191508051906020019060200280838360005b838110156102b857808201518184015260208101905061029d565b505050509050019250505060405180910390f35b3480156102d857600080fd5b506102f760048036038101908080359060200190929190505050610ad0565b604051808273ffffffffffffffffffffffffffffffffffffffff1673ffffffffffffffffffffffffffffffffffffffff16815260200191505060405180910390f35b34801561034557600080fd5b5061037a600480360381019080803573ffffffffffffffffffffffffffffffffffffffff169060200190929190505050610b03565b005b34801561038857600080fd5b506103b16004803603810190808035906020019092919080359060200190929190505050610ba2565b005b3480156103bf57600080fd5b5061041a600480360381019080803590602001908201803590602001908080601f0160208091040260200160405190810160405280939291908181526020018383808284378201915050505050509192919290505050610c84565b005b34801561042857600080fd5b50610431610cec565b604051808273ffffffffffffffffffffffffffffffffffffffff1673ffffffffffffffffffffffffffffffffffffffff16815260200191505060405180910390f35b34801561047f57600080fd5b506104b660048036038101908080359060200190929190803590602001908201803590602001919091929391929390505050610d11565b005b3480156104c457600080fd5b506104e360048036038101908080359060200190929190505050610dff565b005b3480156104f157600080fd5b5061051a6004803603810190808035906020019092919080359060200190929190505050610e64565b005b34801561052857600080fd5b5061055d600480360381019080803573ffffffffffffffffffffffffffffffffffffffff1690602001909291905050506110f7565b005b6008543414151561056f57600080fd5b6105b9600160048381548110151561058357fe5b906000526020600020906003020160020160009054906101000a900463ffffffff1663ffffffff1661124c90919063ffffffff16565b6004828154811015156105c857fe5b906000526020600020906003020160020160006101000a81548163ffffffff021916908363ffffffff16021790555050565b6000600760009054906101000a900473ffffffffffffffffffffffffffffffffffffffff1673ffffffffffffffffffffffffffffffffffffffff1663e98b7f4d836040518263ffffffff167c01000000000000000000000000000000000000000000000000000000000281526004018082815260200191505061014060405180830381600087803b15801561068e57600080fd5b505af11580156106a2573d6000803e3d6000fd5b505050506040513d6101408110156106b957600080fd5b81019080805190602001909291908051906020019092919080519060200190929190805190602001909291908051906020019092919080519060200190929190805190602001909291908051906020019092919080519060200190929190805190602001909291905050509091929394959697985090919293949596975090919293949596509091929394955090919293945090919293509091925090915090508091505061079e83826040805190810160405280600581526020017f6b69747479000000000000000000000000000000000000000000000000000000815250611276565b505050565b6004818154811015156107b257fe5b9060005260206000209060030201600091509050806000018054600181600116156101000203166002900480601f01602080910402602001604051908101604052809291908181526020018280546001816001161561010002031660029004801561085e5780601f106108335761010080835404028352916020019161085e565b820191906000526020600020905b81548152906001019060200180831161084157829003601f168201915b5050505050908060010154908060020160009054906101000a900463ffffffff16908060020160049054906101000a900463ffffffff16908060020160089054906101000a900461ffff169080600201600a9054906101000a900461ffff16905086565b6000809054906101000a900473ffffffffffffffffffffffffffffffffffffffff1673ffffffffffffffffffffffffffffffffffffffff163373ffffffffffffffffffffffffffffffffffffffff1614151561091d57600080fd5b6000809054906101000a900473ffffffffffffffffffffffffffffffffffffffff1673ffffffffffffffffffffffffffffffffffffffff166108fc3073ffffffffffffffffffffffffffffffffffffffff16319081150290604051600060405180830381858888f1935050505015801561099b573d6000803e3d6000fd5b50565b606080600080600660008673ffffffffffffffffffffffffffffffffffffffff1673ffffffffffffffffffffffffffffffffffffffff16815260200190815260200160002054604051908082528060200260200182016040528015610a125781602001602082028038833980820191505090505b50925060009150600090505b600480549050811015610ac5578473ffffffffffffffffffffffffffffffffffffffff166005600083815260200190815260200160002060009054906101000a900473ffffffffffffffffffffffffffffffffffffffff1673ffffffffffffffffffffffffffffffffffffffff161415610ab857808383815181101515610aa157fe5b906020019060200201818152505081806001019250505b8080600101915050610a1e565b829350505050919050565b60056020528060005260406000206000915054906101000a900473ffffffffffffffffffffffffffffffffffffffff1681565b6000809054906101000a900473ffffffffffffffffffffffffffffffffffffffff1673ffffffffffffffffffffffffffffffffffffffff163373ffffffffffffffffffffffffffffffffffffffff16141515610b5e57600080fd5b80600760006101000a81548173ffffffffffffffffffffffffffffffffffffffff021916908373ffffffffffffffffffffffffffffffffffffffff16021790555050565b60148281600482815481101515610bb557fe5b906000526020600020906003020160020160009054906101000a900463ffffffff1663ffffffff1610151515610bea57600080fd5b836005600082815260200190815260200160002060009054906101000a900473ffffffffffffffffffffffffffffffffffffffff1673ffffffffffffffffffffffffffffffffffffffff163373ffffffffffffffffffffffffffffffffffffffff16141515610c5857600080fd5b83600486815481101515610c6857fe5b9060005260206000209060030201600101819055505050505050565b600080600660003373ffffffffffffffffffffffffffffffffffffffff1673ffffffffffffffffffffffffffffffffffffffff16815260200190815260200160002054141515610cd357600080fd5b610cdc8261144b565b9050610ce882826114cd565b5050565b6000809054906101000a900473ffffffffffffffffffffffffffffffffffffffff1681565b60028381600482815481101515610d2457fe5b906000526020600020906003020160020160009054906101000a900463ffffffff1663ffffffff1610151515610d5957600080fd5b846005600082815260200190815260200160002060009054906101000a900473ffffffffffffffffffffffffffffffffffffffff1673ffffffffffffffffffffffffffffffffffffffff163373ffffffffffffffffffffffffffffffffffffffff16141515610dc757600080fd5b8484600488815481101515610dd857fe5b90600052602060002090600302016000019190610df69291906118cc565b50505050505050565b6000809054906101000a900473ffffffffffffffffffffffffffffffffffffffff1673ffffffffffffffffffffffffffffffffffffffff163373ffffffffffffffffffffffffffffffffffffffff16141515610e5a57600080fd5b8060088190555050565b6000806000846005600082815260200190815260200160002060009054906101000a900473ffffffffffffffffffffffffffffffffffffffff1673ffffffffffffffffffffffffffffffffffffffff163373ffffffffffffffffffffffffffffffffffffffff16141515610ed757600080fd5b600486815481101515610ee657fe5b90600052602060002090600302019350600485815481101515610f0557fe5b90600052602060002090600302019250610f1f60646117a0565b9150600a548211151561105557610f5660018560020160089054906101000a900461ffff1661ffff1661183790919063ffffffff16565b8460020160086101000a81548161ffff021916908361ffff160217905550610fa260018560020160009054906101000a900463ffffffff1663ffffffff1661124c90919063ffffffff16565b8460020160006101000a81548163ffffffff021916908363ffffffff160217905550610fee600184600201600a9054906101000a900461ffff1661ffff1661183790919063ffffffff16565b83600201600a6101000a81548161ffff021916908361ffff1602179055506110508684600101546040805190810160405280600681526020017f7a6f6d6269650000000000000000000000000000000000000000000000000000815250611276565b6110e6565b61107f600185600201600a9054906101000a900461ffff1661ffff1661183790919063ffffffff16565b84600201600a6101000a81548161ffff021916908361ffff1602179055506110c760018460020160089054906101000a900461ffff1661ffff1661183790919063ffffffff16565b8360020160086101000a81548161ffff021916908361ffff1602179055505b6110ef8461185d565b505050505050565b6000809054906101000a900473ffffffffffffffffffffffffffffffffffffffff1673ffffffffffffffffffffffffffffffffffffffff163373ffffffffffffffffffffffffffffffffffffffff1614151561115257600080fd5b600073ffffffffffffffffffffffffffffffffffffffff168173ffffffffffffffffffffffffffffffffffffffff161415151561118e57600080fd5b8073ffffffffffffffffffffffffffffffffffffffff166000809054906101000a900473ffffffffffffffffffffffffffffffffffffffff1673ffffffffffffffffffffffffffffffffffffffff167f8be0079c531659141344cd1fd0a4f28419497f9722a3daafe3b4186f6b6457e060405160405180910390a3806000806101000a81548173ffffffffffffffffffffffffffffffffffffffff021916908373ffffffffffffffffffffffffffffffffffffffff16021790555050565b60008082840190508363ffffffff168163ffffffff161015151561126c57fe5b8091505092915050565b600080846005600082815260200190815260200160002060009054906101000a900473ffffffffffffffffffffffffffffffffffffffff1673ffffffffffffffffffffffffffffffffffffffff163373ffffffffffffffffffffffffffffffffffffffff161415156112e757600080fd5b6004868154811015156112f657fe5b9060005260206000209060030201925061130f83611887565b151561131a57600080fd5b6002548581151561132757fe5b06945060028584600101540181151561133c57fe5b04915060405180807f6b697474790000000000000000000000000000000000000000000000000000008152506005019050604051809103902060001916846040518082805190602001908083835b6020831015156113af578051825260208201915060208101905060208303925061138a565b6001836020036101000a03801982511681845116808217855250505050505090500191505060405180910390206000191614156113fb5760636064838115156113f457fe5b0683030191505b61143a6040805190810160405280600681526020017f4e6f4e616d650000000000000000000000000000000000000000000000000000815250836114cd565b6114438361185d565b505050505050565b600080826040518082805190602001908083835b602083101515611484578051825260208201915060208101905060208303925061145f565b6001836020036101000a0380198251168184511680821785525050505050509050019150506040518091039020600190049050600254818115156114c457fe5b06915050919050565b60006001600460c060405190810160405280868152602001858152602001600163ffffffff168152602001600354420163ffffffff168152602001600061ffff168152602001600061ffff1681525090806001815401808255809150509060018203906000526020600020906003020160009091929091909150600082015181600001908051906020019061156392919061194c565b506020820151816001015560408201518160020160006101000a81548163ffffffff021916908363ffffffff16021790555060608201518160020160046101000a81548163ffffffff021916908363ffffffff16021790555060808201518160020160086101000a81548161ffff021916908361ffff16021790555060a082015181600201600a6101000a81548161ffff021916908361ffff1602179055505050039050336005600083815260200190815260200160002060006101000a81548173ffffffffffffffffffffffffffffffffffffffff021916908373ffffffffffffffffffffffffffffffffffffffff1602179055506116ac6001600660003373ffffffffffffffffffffffffffffffffffffffff1673ffffffffffffffffffffffffffffffffffffffff168152602001908152602001600020546118ae90919063ffffffff16565b600660003373ffffffffffffffffffffffffffffffffffffffff1673ffffffffffffffffffffffffffffffffffffffff168152602001908152602001600020819055507f88f026aacbbecc90c18411df4b1185fd8d9be2470f1962f192bf84a27d0704b78184846040518084815260200180602001838152602001828103825284818151815260200191508051906020019080838360005b8381101561175f578082015181840152602081019050611744565b50505050905090810190601f16801561178c5780820380516001836020036101000a031916815260200191505b5094505050505060405180910390a1505050565b60006117b860016009546118ae90919063ffffffff16565b600981905550814233600954604051808481526020018373ffffffffffffffffffffffffffffffffffffffff1673ffffffffffffffffffffffffffffffffffffffff166c01000000000000000000000000028152601401828152602001935050505060405180910390206001900481151561182f57fe5b069050919050565b60008082840190508361ffff168161ffff161015151561185357fe5b8091505092915050565b60035442018160020160046101000a81548163ffffffff021916908363ffffffff16021790555050565b6000428260020160049054906101000a900463ffffffff1663ffffffff1611159050919050565b60008082840190508381101515156118c257fe5b8091505092915050565b828054600181600116156101000203166002900490600052602060002090601f016020900481019282601f1061190d57803560ff191683800117855561193b565b8280016001018555821561193b579182015b8281111561193a57823582559160200191906001019061191f565b5b50905061194891906119cc565b5090565b828054600181600116156101000203166002900490600052602060002090601f016020900481019282601f1061198d57805160ff19168380011785556119bb565b828001600101855582156119bb579182015b828111156119ba57825182559160200191906001019061199f565b5b5090506119c891906119cc565b5090565b6119ee91905b808211156119ea5760008160009055506001016119d2565b5090565b905600a165627a7a72305820690afb6702f4850b562cdda7fb8bdbd0190ae48bf2429dbc2ae63137e18b04610029",
  "source": "pragma solidity ^0.4.24;\r\n\r\nimport \"./zombiehelper.sol\";\r\n\r\ncontract ZombieAttack is ZombieHelper {\r\n    uint randNonce = 0;\r\n    uint attackVictoryProbability = 70;\r\n\r\n    function randMod(uint _modulus) internal returns (uint) {\r\n        randNonce = randNonce.add(1);\r\n        return uint(keccak256(now, msg.sender, randNonce)) % _modulus;\r\n    }\r\n\r\n    function attack(\r\n        uint _zombieId,\r\n        uint _targetId\r\n    ) external onlyOwnerOf(_zombieId) {\r\n        Zombie storage myZombie = zombies[_zombieId];\r\n        Zombie storage enemyZombie = zombies[_targetId];\r\n        uint rand = randMod(100);\r\n        if (rand <= attackVictoryProbability) {\r\n            myZombie.winCount = myZombie.winCount.add(1);\r\n            myZombie.level = myZombie.level.add(1);\r\n            enemyZombie.lossCount = enemyZombie.lossCount.add(1);\r\n            feedAndMultiply(_zombieId, enemyZombie.dna, \"zombie\");\r\n        } else {\r\n            myZombie.lossCount = myZombie.lossCount.add(1);\r\n            enemyZombie.winCount = enemyZombie.winCount.add(1);\r\n        }\r\n        _triggerCooldown(myZombie);\r\n    }\r\n}\r\n",
  "sourcePath": "C:\\Projects\\Solidity\\zombieFactory\\contracts\\zombieattack.sol",
  "compiler": {
    "name": "solc",
    "version": "0.4.24+commit.e67f0147.Emscripten.clang"
  },
  "schemaVersion": "3.4.14",
  "updatedAt": "2023-07-09T09:24:45.654Z",
  "devdoc": {
    "methods": {
      "transferOwnership(address)": {
        "details": " owner  contract  newOwner\r",
        "params": {
          "newOwner": " address  ownership \r"
        }
      }
    }
  },
  "userdoc": {
    "methods": {}
  }
}